:100000000C94DD000C9405010C9405010C94050181
:100010000C9405010C9405010C9405010C94050148
:100020000C9405010C9405010C9405010C94050138
:100030000C9405010C9405010C9405010C94050128
:100040000C94A1090C9405010C946F090C944909B6
:100050000C9405010C9405010C9405010C94050108
:100060000C9405010C9405016382536300010800A0
:100070000604000100000000240027002A00000000
:100080000000250028002B000404040404040404D8
:100090000202020202020303030303030102040833
:1000A00010204080010204081020010204081020E2
:1000B0000000000800020100000304070000000027
:1000C0000000000045000082000040002048545419
:1000D000502F312E3020353033204D79205365722A
:1000E00076696365200D0A436F6E74656E742D54D6
:1000F0007970653A20746578742F68746D6C0D0A98
:1001000052657472792D41667465723A20363030CA
:100110000D0A0D0A3C68746D6C3E3C686561643E76
:100120003C7469746C653E547567617320494F5423
:100130003C2F7469746C653E3C2F686561643E3C7D
:10014000626F64793E3C68333E416E647265616EF5
:10015000204C75647669204E757220417A697A3C2C
:100160002F68333E3C703E3C656D3E56333932302D
:100170003030373C6272202F3E332D392D323030F3
:1001800032616E647265616E6C6E61383640737494
:100190007564656E742E756E732E61632E69643C92
:1001A0002F656D3E3C2F703E3C2F626F64793E3C64
:1001B0002F68746D6C3E00005F0E11241FBECFEFE0
:1001C000D8E0DEBFCDBF11E0A0E0B1E0ECECFDE196
:1001D00002C005900D92A239B107D9F724E0A2E937
:1001E000B1E001C01D92A738B207E1F710E0CDEDF4
:1001F000D0E004C02197FE010E94C20ECC3DD10781
:10020000C9F70E94EB090C94E40E0C940000CF9304
:10021000DF932091E6032223C1F0FC0120812223F9
:10022000A1F0C6EED3E0A2EEB3E09C012C5F3F4FFD
:10023000899141919D918427892339F4E217F3072D
:10024000B9F781E0DF91CF91089580E0FBCFAF92C5
:10025000BF92CF92DF92EF92FF920F931F93CF93B3
:10026000DF936C017B018B01040F151FEB015E0115
:10027000AE18BF08C017D10759F06991D601ED91AA
:10028000FC910190F081E02DC6010995892B79F749
:10029000C501DF91CF911F910F91FF90EF90DF90FB
:1002A000CF90BF90AF900895FC01538D448D252FC2
:1002B00030E0842F90E0821B930B541710F0CF9600
:1002C000089501970895FC01918D828D981761F032
:1002D000A28DAE0FBF2FB11D5D968C91928D9F5F49
:1002E0009F73928F90E008958FEF9FEF0895FC0128
:1002F000918D828D981731F0828DE80FF11D858DDB
:1003000090E008958FEF9FEF0895FC01918D228D6D
:10031000892F90E0805C9F4F821B91098F739927F2
:1003200008958AEE93E00E94850121E0892B09F46B
:1003300020E0822F089580E090E0892B29F00E9430
:10034000910181110C9400000895FC01A48DA80F67
:10035000B92FB11DA35ABF4F2C91848D90E0019607
:100360008F739927848FA689B7892C93A089B18927
:100370008C91837080648C93938D848D981306C0C8
:100380000288F389E02D80818F7D80830895EF922C
:10039000FF920F931F93CF93DF93EC0181E0888F3F
:1003A0009B8D8C8D98131AC0E889F989808185FF0F
:1003B00015C09FB7F894EE89FF896083E889F989B1
:1003C00080818370806480839FBF81E090E0DF91B3
:1003D000CF911F910F91FF90EF900895F62E0B8D06
:1003E00010E00F5F1F4F0F731127E02E8C8D8E11C1
:1003F0000CC00FB607FCFACFE889F989808185FF28
:10040000F5CFCE010E94A501F1CFEB8DEC0FFD2FB2
:10041000F11DE35AFF4FF0829FB7F8940B8FEA89E2
:10042000FB8980818062CFCFCF93DF93EC01888DF1
:100430008823B9F0AA89BB89E889F9898C9185FD5F
:1004400003C0808186FD0DC00FB607FCF7CF8C91ED
:1004500085FFF2CF808185FFEDCFCE010E94A501FF
:10046000E9CFDF91CF91089590E0FC01E055FF4F77
:100470002491FC01E456FF4F3491FC01E857FF4FF3
:10048000E491EE23C9F0222339F0233001F1A8F4DE
:10049000213019F1223029F1F0E0EE0FFF1FE25870
:1004A000FF4FA591B4918FB7F894EC91611126C0DC
:1004B00030953E233C938FBF08952730A9F0283014
:1004C000C9F0243049F7809180008F7D03C080916E
:1004D00080008F7780938000DFCF84B58F7784BDD5
:1004E000DBCF84B58F7DFBCF8091B0008F77809379
:1004F000B000D2CF8091B0008F7DF9CF3E2BDACF04
:10050000CF93DF9390E0FC01E456FF4F249188578E
:100510009F4FFC0184918823D1F090E0880F991FB0
:10052000FC01EC58FF4FA591B491FC01E258FF4F3C
:10053000C591D49161110EC09FB7F8948C91E22FB0
:10054000E0958E238C932881E223E8839FBFDF917F
:10055000CF9108958FB7F894EC91E22BEC938FBF75
:10056000F6CF3FB7F8948091B2019091B301A0917A
:10057000B401B091B50126B5A89B05C02F3F19F075
:100580000196A11DB11D3FBFBA2FA92F982F882713
:10059000BC01CD01620F711D811D911D42E0660FEE
:1005A000771F881F991F4A95D1F708952FB7F894A0
:1005B0006091AE017091AF018091B0019091B10155
:1005C0002FBF08958091FE019091FF019827892700
:1005D0009827449720911C0230E044E035952795F8
:1005E0004A95E1F7220F331F220F331F821B930B13
:1005F00097FF02C090E080E00895209112023091B0
:1006000010023093120220931002209113023091B5
:1006100011023093130220931102EEEEF1E021A5B6
:10062000820F911D25A585A7662381F021A7892F1B
:100630009927319721E0EA3EF20789F710922002CC
:100640001092210280E580931C02089511A6EFCF3D
:100650000F931F93CF93DF9370E062517E4F8A0117
:10066000075F1F4F213029F0223031F48A010250F8
:10067000110930E020E003C000E010E09801EB0138
:10068000FA01E230F10558F0A991B991BA27AB27E8
:10069000BA270A0F1B1F211D311D3297F2CFFA0115
:1006A000EE7F6E0F7F1F4E175F0769F0FB014081E1
:1006B00050E070E060E0762F652F542F4427040F40
:1006C000151F261F371FA9016627772741155105DA
:1006D0006105710519F022273327F1CF0095109598
:1006E000E82FF0E0E251FE4F10830183DF91CF91BC
:1006F0001F910F910895EEEEF1E0108E118E80E4BF
:10070000848B158A868B20E044E150E06EE088E11E
:100710000C9428038EBD0DB407FEFDCF089561E053
:100720008091B6010E94340278940895F89460E0B4
:100730008091B6010C9434020F931F93CF93DF93F3
:10074000EC018B010E9496032097B9F08AE30E9486
:100750008A031EBCF801CE01019739F00DB407FEE3
:10076000FDCF2EB51EBC2193F7CF2197C00FD11F0F
:100770000DB407FEFDCF8EB58883DF91CF911F9119
:100780000F910C948F031F93CF93DF93182FC62FD5
:10079000D42F0E9496038C2F8F71812B0E948A0385
:1007A0008D2F0E948A03DF91CF911F910C948F03AC
:1007B000CF93C82FC0768091A9018C1799F043E0A0
:1007C0006FE180EA0E94C303C093A9014C2F50E05F
:1007D00085E0559547958A95E1F76FE180E8CF91DF
:1007E0000C94C303CF910895CF93DF93C82FD62FD6
:1007F0000E94D8034D2F6C2F80E4DF91CF910C9491
:10080000C303CF93DF93C82FD72F0E94F4036D2F1C
:1008100081E08C0FDF91CF910C94F403CF93C82F1C
:100820000E94D8030E9496038C2F8F710E948A0326
:1008300080E00E948A03C7FF03C080E00E948A0311
:10084000CEB50E948F038C2FCF91089561E184ED86
:100850000E94F40361E082ED0E94F4038AEE0E949C
:100860000E0480FDFBCF60E082ED0E94F40389ED71
:100870000E940E0490E008950F931F93CF93DF938F
:1008800000D000D000D0CDB7DEB78091AC01882376
:1008900079F06091AA017091AB016115710509F0C1
:1008A00053C06FEF7BE08CE00E9401041092AC011A
:1008B00089E30E940E0410E000E08823C9F16091F2
:1008C000AA017091AB0180E00E940104BE016F5F3C
:1008D0007F4F86E090E00E949C0389819A819093EB
:1008E000AB018093AA018D819E818C010078112734
:1008F00087FF12C08B819C8104970091B7011091F2
:10090000B801015011098017910708F48C016EEEAF
:1009100071E0C8010E949C03F801E251FE4F108271
:1009200081E08093AC0140E46EE180E80E94C30363
:10093000C80126960FB6F894DEBF0FBECDBFDF917B
:10094000CF911F910F91089561507109ACCFCF9352
:10095000DF93EC0140E86FE180E80E94C30340E8C8
:100960006FE180EA0E94C3034AE06CE180EA0E94E2
:10097000C30360E07CE082E00E940104BE01745F7A
:1009800086E00E94010440E060E08AE70E94C30321
:100990000E9496032097B1F08AE70E948A03809113
:1009A000EE018EBDEFEEF1E0C251DE4FEC17FD0718
:1009B00031F081910DB407FEFDCF8EBDF7CF0DB4A0
:1009C00007FEFDCF0E948F0348E06FE180E80E94A0
:1009D000C303D0E0C0E08CE10E940E048A7029F4C9
:1009E0002196C83E83E0D807B1F78CE10E940E043F
:1009F00081FD03C0C83ED34039F448E06FE180EA8E
:100A0000DF91CF910C94C303DF91CF9108950F93A1
:100A10001F93CF93DF938C018896CEEED1E0988B15
:100A2000898B0E947B031AAA1BAAA801445E5F4F10
:100A300022E06AE182E30E942803C801C696DF91A2
:100A4000CF911F910F910C94A704CF93DF93EB01EB
:100A5000682F84ED0E94F403BE0186ED0E9401041C
:100A60008AEE0E940E0480FDFBCFDF91CF910895A6
:100A7000CF92DF92EF92FF920F931F9386349105EE
:100A800068F120911102233449F5C0901C02D090E6
:100A90001D02E0901E02F0901F020091990110913A
:100AA0009A0120919B0130919C01C016D106E2066B
:100AB000F306A1F4E8E0F3E082519E4F9F012E5F20
:100AC0003F4F41815081553319F45281651771F0C0
:100AD000F901E40FF11DE817F90780F380E01F9199
:100AE0000F91FF90EF90DF90CF90089581E0F7CFC6
:100AF000E0919201F09193019F012F5F3F4F30935E
:100B000093012093920180830895FF920F931F9386
:100B1000CF93DF93162FF42E052F0E947805812F97
:100B20000E947805CF2DD02F115020F089910E947E
:100B30007805FACFDF91CF911F910F91FF90089523
:100B4000FC0101900020E9F73197AF01481B590BD8
:100B5000BC018AEE93E00C942701CF93DF930E94AF
:100B6000A005EC0180E491E00E94A0058C0F9D1F80
:100B7000DF91CF9108958F929F92AF92BF92CF92C3
:100B8000DF92EF92FF921F93CF93DF93CDB7DEB743
:100B9000A1970FB6F894DEBF0FBECDBFD62E172F8C
:100BA0000E94A005ED2CF12E10E08AE0882E912CF9
:100BB000A12CB12CF70121917F0130E050E040E001
:100BC00019A26E01F1E2CF0ED11CCA01B901A50133
:100BD00094010E94950E605DF60162936F012115EC
:100BE00031054105510589F7309719F0CF010E9471
:100BF000A005133029F06EE28AEE93E00E94C7014F
:100C00001F5F1430B9F680E491E00E94A005A19620
:100C10000FB6F894DEBF0FBECDBFDF91CF911F910D
:100C2000FF90EF90DF90CF90BF90AF909F908F900C
:100C30000895DC0196E0FB0101900D929A95E1F791
:100C40000895CF93DF93EB0144E050E0BC018AE0CC
:100C500092E00E94D70E892B49F464E072E0CE0145
:100C60000E94190681E0DF91CF91089580E0FBCFCB
:100C7000BC018EEE91E00E94190661EC71E084EFF8
:100C800091E00C941906DC0194E0FB0101900D92B7
:100C90009A95E1F708950F931F93CF938C018AE300
:100CA00091E00E943806EEEEF1E088E08487C6E02D
:100CB000C58748E050E06CE670E08CEF91E00E9460
:100CC0008C0EEEE0F2E0DF011D92CA95E9F761ECCF
:100CD00071E084E092E00E941906B80184E192E09C
:100CE0000E94430666EE73E08AE092E00E944306AB
:100CF0008AE290E0CF911F910F910C94A70484EFAA
:100D000091E00E94380668E072E08CE092E00E9478
:100D1000430666EE73E088E092E00E9443060C947E
:100D20007B03262F206120931D02643021F0009761
:100D300011F481E090E061E00E94FD021092FE015A
:100D400088E28093FF010E947F0684E080931E0268
:100D500010921F0222E04CE150E06AE182E30E941F
:100D6000280386E390E00C94A704CF93DF93EB0174
:100D70000E943806BE018CE092E00E94430666EEB7
:100D800073E088E092E0DF91CF910C944306EF92FC
:100D9000FF920F931F93CF93DF938C01EEEEF1E060
:100DA00086E191E0DF019C011D9221503040E1F786
:100DB0008091C001CAE3D1E0833011F4C4E9D1E0ED
:100DC000CE010E940701BE01882309F4ACC08BEC60
:100DD00091E00E94B5068881807F803E91F08881F5
:100DE0009981AA81BB818F3F9F4FAF4FBF4F49F081
:100DF00044E050E0BE0187EC91E00E94D70E892BC1
:100E000031F46AE371E08EEE91E00E94190688E009
:100E10008093FA011092FB0149E050E064EC70E02D
:100E20008CEF91E00E948C0E1092FE0181E1809384
:100E300005021092120283E48093130210921002B2
:100E400084E4809311021092140210921602109200
:100E500017026AE371E08EEE91E00E94190681E0CC
:100E6000809318028093190286E080931A02809181
:100E7000990190919A01A0919B01B0919C0180935E
:100E80001C0290931D02A0931E02B0931F02C091FA
:100E9000C001C33031F466EE73E084E292E00E9458
:100EA000430661EC71E084E392E00E94190684E05D
:100EB00093E09093930180939201E8E6F0E08491AF
:100EC0000E947805E9E6F0E084910E947805EAE660
:100ED000F0E084910E947805EBE6F0E084910E94B6
:100EE000780585E30E94780581E00E94780583E01B
:100EF000C11101C081E00E9478058DE30E94780550
:100F000087E00E94780581E00E94780581ECE82E58
:100F100081E0F82EC7E0C15049F0D7018D917D01E5
:100F20000E947805F8CF81ED91E053CF80910001C8
:100F3000882371F060E071E0FB0101900020E9F787
:100F4000BF016150714040E051E08CE00E94850596
:100F50000115110559F0A80164E082E30E9485059E
:100F600044E951E064E086E30E94850587E30E943E
:100F7000780583E00E94780581E00E94780583E08F
:100F80000E94780586E00E9478058FEF0E94780520
:100F9000C0919201D0919301C851D240CE014C969C
:100FA0009093FE018093FF010E947B03CE0108967F
:100FB0009093140280931502AE01405F5F4F21E0D1
:100FC0006AE188E20E942803CE018A96DF91CF91E0
:100FD0001F910F91FF90EF900C94A704CF92DF9296
:100FE000EF92FF920F931F93CF93DF9300D000D027
:100FF000CDB7DEB78C018091C0018230C9F098F482
:10100000882309F49CC0813009F4B8C00F900F9078
:101010000F900F90DF91CF911F910F91FF90EF9064
:10102000DF90CF900895833009F454C0843071F775
:1010300065E0C8010E943805882309F4C7C0809183
:101040009801811108C088E30E940E04682F6E7F0A
:1010500088E30E94F40368E272E086EE93E00E9467
:101060004306E8E0F3E002511E4F7F0122E0E20E6A
:10107000F11CD1808081863009F4FAC008F0BDC02F
:10108000813009F4EBC0833009F4EEC0F701ED0DB7
:10109000F11DE017F10748F30E94D6026093A10109
:1010A0007093A2018093A3019093A4018091E40125
:1010B000882361F01092E9011092E80181E08093A9
:1010C000EA0164EE71E0CB010E94430683E0809365
:1010D000C0019CCFC090A501D090A601E090A701CF
:1010E000F090A8012FEFC216D206E206F20609F42C
:1010F0008DCF0E94D6020091A1011091A2012091F2
:10110000A3013091A401601B710B820B930B6C1532
:101110007D058E059F0508F479CF86EE93E00E9449
:10112000C70684E08093C0010E94D60260939D01AF
:1011300070939E0180939F019093A00167CF0E94BE
:10114000D6026093990170939A0180939B019093CA
:101150009C01E6EEF3E084E0DF011D928A95E9F759
:1011600090E080E00E94C70688E30E940E04682F8A
:10117000616088E30E94F40381E0D4CF62E0C8019B
:101180000E943805882311F168E272E0CE010196D1
:101190000E944306E8E0F3E002511E4FBF016E5F7C
:1011A0007F4F81819081963351F484E991E00E94D0
:1011B0004306CE0101960E94C70682E0B3CFFB0131
:1011C000E80FF11DE017F10748F3F3CF0E94D602B4
:1011D00000919D0110919E0120919F013091A001ED
:1011E000601B710B820B930B613177428105910576
:1011F00008F40CCF1092C00109CF8A3331F08F3F31
:1012000009F44ACF833309F041CF1092A50110921F
:10121000A6011092A7011092A801F701C701049638
:1012200020E030E0A9016191542F432F322F222773
:10123000260F311D411D511D8E179F07A1F72F3F0E
:101240008FEF380748075807B9F42093A50130936A
:10125000A6014093A7015093A80118CFB70182EED1
:1012600093E00E94430612CFB70184EE91E0F9CFDC
:10127000B7018FED91E0F5CFA8EEB3E00E94B70E75
:101280006093A5017093A6018093A7019093A80194
:10129000FDCE1F920F920FB60F9211242F933F9302
:1012A0004F935F936F937F938F939F93AF93BF936E
:1012B000EF93FF938AEE93E00E94A501FF91EF91D7
:1012C000BF91AF919F918F917F916F915F914F915E
:1012D0003F912F910F900FBE0F901F9018951F9266
:1012E0000F920FB60F9211242F938F939F93EF932A
:1012F000FF93E091FA03F091FB038081E0910004F9
:10130000F091010482FD1BC09081809103048F5FE6
:101310008F7320910404821741F0E0910304F0E000
:10132000E651FC4F958F80930304FF91EF919F91BD
:101330008F912F910F900FBE0F901F901895808165
:10134000F4CF1F920F920FB60F9211242F933F9359
:101350008F939F93AF93BF938091AE019091AF0114
:10136000A091B001B091B1013091AD0123E0230F04
:101370002D3758F50196A11DB11D2093AD01809325
:10138000AE019093AF01A093B001B093B1018091F1
:10139000B2019091B301A091B401B091B501019651
:1013A000A11DB11D8093B2019093B301A093B4012C
:1013B000B093B501BF91AF919F918F913F912F91C4
:1013C0000F900FBE0F901F90189526E8230F0296DE
:1013D000A11DB11DD2CF789484B5826084BD84B53F
:1013E000816084BD85B5826085BD85B5816085BD20
:1013F00080916E00816080936E00109281008091D8
:10140000810082608093810080918100816080935F
:101410008100809180008160809380008091B10084
:1014200084608093B1008091B00081608093B000AF
:1014300080917A00846080937A0080917A00826043
:1014400080937A0080917A00816080937A00809105
:101450007A00806880937A001092C100E091FA03CC
:10146000F091FB0382E08083E091F603F091F703B3
:101470001082E091F803F091F9038FEC80831092D1
:101480000204E091FE03F091FF0386E08083E09187
:10149000FC03F091FD03808180618083E091FC0377
:1014A000F091FD03808188608083E091FC03F091DE
:1014B000FD03808180688083E091FC03F091FD034F
:1014C00080818F7D808383E491E00E94AD0510923E
:1014D000EB0187E390E0C12CD12C7601C3940097F7
:1014E000C1F0FC0143E0F595E7954A95E1F7E75433
:1014F000FE4F282F2770B701A60104C0440F551FC7
:10150000661F771F2A95D2F72081242B208301970D
:10151000E6CF60E271E081EC91E00E94190684EF71
:1015200091E09093B8018093B7010CB406FC25C0FC
:1015300061E08AE00E94800261E08AE00E94340259
:1015400061E08BE00E94800261E08DE00E948002F9
:1015500060E08CE00E94800261E08BE00E94340237
:1015600060E08BE00E94340260E08DE00E94340273
:1015700080E58CBD8DB581608DBD8AE08093B6011C
:1015800061E00E9480020E948F034FEF60E08FEFC6
:101590000E94C3030E94B1026B017C0132E0832EE2
:1015A000912CA12CB12C0E94B1026C197D098E09DD
:1015B0009F09683E734081059105A8F328EEC20E8D
:1015C00023E0D21EE11CF11C8A9489288A288B28EA
:1015D00029F0812C912C54018394E5CF0E9496032D
:1015E0008DE10E948A0380E00E948A03CEB50E94AA
:1015F0008F03CC2399F370E060E088E00E9401043F
:1016000070E060E08CE00E9401046FEF7BE08AE014
:101610000E94010460E07CE084E00E9401046FEF1E
:1016200071E186E00E94010466E774E084E10E94B3
:10163000250561EB88E30E94F4036FE370E388E221
:101640000E94010469EF77EF80E30E94010461E0EA
:1016500080EC0E94F40342E362EC80E80E94C30342
:1016600062E17CE086EC0E94010462E184EC0E946D
:10167000F4036CED75E08AEC0E9401046091C101F5
:1016800084EE0E94F4036091C20185EE0E94F4038F
:101690006091C30182EE0E94F4036091C40183EE65
:1016A0000E94F4036091C50180EE0E94F4036091F2
:1016B000C60181EE0E94F40360E071E080E10E94C7
:1016C00025058FE10E94D80340EC6BE180E80E9481
:1016D000C30344E06FE180E80E94C30382E70E94F5
:1016E0000E04863008F08F5F811104C08FE491E012
:1016F0000E94AD0581E08093EB018091C601282F07
:1017000030E094E0359527959A95E1F7E0E0F1E037
:1017100001900020E9F7E350F14090E32A300CF00B
:1017200097E3E050FF4F920F9083E0E0F1E00190EB
:101730000020E9F7E250F1408F7090E38A300CF01E
:1017400097E3890FE050FF4F80831092C0010E9401
:10175000D602EB011091C001133041F00E94D60275
:101760006C1B7D0B60367A4E08F413C1E6EEF3E095
:10177000C2EED3E0A7ECB1E02AEE33E0919189917B
:101780008095892B8D932E173F07C1F71092E901A1
:101790001092E801133021F084E791E00E94AD053A
:1017A00066EE73E080E891E00E94BB0564EE71E0B4
:1017B00086E891E00E94BB056FED71E08CE891E056
:1017C0000E94BB05F0E0CF2EF0E0DF2EA9E16A2EEB
:1017D000BCE29B2EC2E15C2E12E0D4E08D2E05E02F
:1017E000F02E40E6E42E58E7352E66E0B62E01E0F6
:1017F00078E1772EE3E0AE2E0E943C04EC0180916C
:10180000EB01882319F0CE010E94EE07209709F022
:10181000CCC08091EA01857099F08091E8019091A7
:10182000E901892B69F40E94260482FF09C084EE35
:1018300091E00E944B068091EA0188608093EA0162
:101840008091E8019091E90101969093E9018093DC
:10185000E8018091E301813009F067C08091EA01DD
:1018600081FF63C01093E301809127018F5F809314
:101870002701C82FCF7189ED91E00E94070169ED22
:1018800071E0882309F48EC08BEC91E00E94B506CC
:10189000D8E0D093FA011092FB0149E050E064ECEB
:1018A00070E08CEF91E00E948C0E9092FF01B0925C
:1018B00005020E947B0310921202109213028BE029
:1018C00080931002C0931102E4E1F2E0DF011D9267
:1018D000DA95E9F780912601809316028D5F809357
:1018E0002601E0921C0210931D02A0921E0210928B
:1018F0001F021092200210922102109222021092D6
:10190000230210932402809225021093260286E27D
:101910008093270222E040E250E06AE182E30E94E5
:1019200028038AE390E00E94A7048FED91E00E94D3
:101930000701882371F08091DE0181110AC0809136
:10194000DD01811106C08FED91E00E944B060093EE
:10195000DD0189ED91E00E940701882371F08091FB
:10196000D80181110AC08091D701811106C089ED8B
:1019700091E00E944B060093D701C114D10409F4F1
:101980003BCF0E949101882309F42BCF0E940000D5
:1019900028CF0E94260482FFDDCE0E943C040E94D4
:1019A000EE07D8CE81ED91E071CFC932D10528F391
:1019B0008091FA01883009F78091FB01863009F0A7
:1019C00036C144E050E066EE73E084E192E00E94AC
:1019D000D70E892B91F680910302813021F584EF97
:1019E00091E00E943806109202021093030264E014
:1019F00072E08EE092E00E94190661EC71E084E0F2
:101A000092E00E9419066AE072E084E192E00E948E
:101A1000430666EE73E08AE092E00E9443068AE2A3
:101A200090E00E94A7048091EA0183FF0DC0C0915D
:101A30000302C23049F461ED71E084EE91E00E944E
:101A400021068111C093EA018091DE01811110C04D
:101A50008091DD01882361F06BEC71E08FED91E006
:101A60000E942106882321F00093DE011092DD01FF
:101A70008091D801811181CF8091D701882309F409
:101A80007CCF6BEC71E089ED91E00E942106882308
:101A900009F473CF0093D8011092D7016ECFC633EB
:101AA000D10508F46ACF863009F067CF8091120221
:101AB0008B3009F04AC044E050E069ED71E088E005
:101AC00092E00E94D70E892B09F057CFC0911D02DA
:101AD000C2FF03C0F092E30150CF0E94E2022091C6
:101AE000E3012230F1F42C2F2071C271C23171F464
:101AF00060E090E080E00E94910670921D02A0924A
:101B0000E30190E080E00E94070537CF0093E301F6
:101B10000196222311F090E080E064E00E9491069B
:101B20002CCF253009F429CFC0FF0AC0233009F497
:101B300024CF69E001960E949106B092E3011DCF87
:101B400060E0009709F419CFE9CF811116CF809199
:101B50001302803509F011CF40901D0241FE32C0C2
:101B60001092FE019092FF010E947F0650921D028A
:101B700060E081E090E00E94FD0210921402109259
:101B800015028091260180931602109217028D5F34
:101B9000809326011093240280922502F09226025F
:101BA00010922702E0921C02F0921E0230921F0255
:101BB00022E040E250E06AE182E30E9428038AE3E7
:101BC00090E07AC044FED9CE0E94E2029093ED01EB
:101BD0008093EC01892B29F180911C0290E024E094
:101BE000959587952A95E1F7880F991F880F991F7A
:101BF0008296C817D90708F4C0CE4AEE50E06DECC3
:101C000070E084E292E00E948C0E60E08091EC0132
:101C10009091ED010E94910660921D0289EE90E084
:101C200072CF40FEAACE60E090E080E077CFC9326C
:101C3000D10509F4A2CE8111A0CE8091FC0185349A
:101C400009F09BCE44E050E066EE73E08CE092E059
:101C50000E94D70E892BA9F044E050E067EC71E0B8
:101C60008CE092E00E94D70E892B59F044E050E0BE
:101C70006AE371E08CE092E00E94D70E892B09F0B4
:101C80007CCE80910502813009F009CF809110024D
:101C9000883009F072CE0E947F0610921002809167
:101CA0001202883F28F0909113029F5F90931302D5
:101CB000885F80931202CE010E94A7045ECEEAEEF6
:101CC000F3E01382128288EE93E0A0E0B0E0848318
:101CD0009583A683B7838CE291E09183808385EC22
:101CE00090E09587848784EC90E09787868780ECE6
:101CF00090E0918B808B81EC90E0938B828B82ECD7
:101D000090E0958B848B86EC90E0978B868B118E80
:101D1000128E138E148E0895FB01DC0102C0059013
:101D20000D9241505040D8F70895A1E21A2EAA1BF7
:101D3000BB1BFD010DC0AA1FBB1FEE1FFF1FA2177B
:101D4000B307E407F50720F0A21BB30BE40BF50B78
:101D5000661F771F881F991F1A9469F76095709501
:101D6000809590959B01AC01BD01CF0108950E9423
:101D7000C80EA59F900DB49F900DA49F800D911D3E
:101D800011240895EE0FFF1F0590F491E02D0994A2
:101D9000A29FB001B39FC001A39F700D811D1124AC
:101DA000911DB29F700D811D1124911D0895FB019D
:101DB000DC0104C08D910190801921F44150504004
:0C1DC000C8F7881B990B0895F894FFCF1A
:101DCC0041726475696E6F2D454E4332386A3630F8
:101DDC002D3030000000000000000000000000006A
:101DEC007469692D30310A0100000000C701270118
:101DFC0054011402850163017701FFFFFFFFFFFF10
:101E0C000D0A000A5B6261636B536F6F6E5D004677
:101E1C0061696C656420746F206163636573732002
:101E2C0045746865726E657420636F6E74726F6C46
:101E3C006C65720044484350206661696C656400AF
:101E4C0049503A20200047573A202000444E533A3C
:021E5C00200064
:00000001FF
